{
  "contractName": "TrustFund",
  "abi": [
    {
      "anonymous": false,
      "inputs": [
        {
          "indexed": true,
          "internalType": "address",
          "name": "_spender",
          "type": "address"
        },
        {
          "indexed": true,
          "internalType": "address",
          "name": "_ben",
          "type": "address"
        },
        {
          "indexed": false,
          "internalType": "uint256",
          "name": "_payOutDate",
          "type": "uint256"
        },
        {
          "indexed": false,
          "internalType": "uint256",
          "name": "_value",
          "type": "uint256"
        }
      ],
      "name": "BeneficiaryCreated",
      "type": "event"
    },
    {
      "anonymous": false,
      "inputs": [
        {
          "indexed": true,
          "internalType": "address",
          "name": "_ben",
          "type": "address"
        },
        {
          "indexed": false,
          "internalType": "uint256",
          "name": "_value",
          "type": "uint256"
        }
      ],
      "name": "Deposit",
      "type": "event"
    },
    {
      "anonymous": false,
      "inputs": [
        {
          "indexed": true,
          "internalType": "address",
          "name": "_ben",
          "type": "address"
        },
        {
          "indexed": false,
          "internalType": "bool",
          "name": "isTimeRemaining",
          "type": "bool"
        },
        {
          "indexed": false,
          "internalType": "uint256",
          "name": "actStamp",
          "type": "uint256"
        },
        {
          "indexed": false,
          "internalType": "uint256",
          "name": "initialStamp",
          "type": "uint256"
        }
      ],
      "name": "Remaining",
      "type": "event"
    },
    {
      "anonymous": false,
      "inputs": [
        {
          "indexed": true,
          "internalType": "address",
          "name": "_ben",
          "type": "address"
        },
        {
          "indexed": false,
          "internalType": "uint256",
          "name": "_value",
          "type": "uint256"
        }
      ],
      "name": "Withdraw",
      "type": "event"
    },
    {
      "inputs": [],
      "name": "admin",
      "outputs": [
        {
          "internalType": "address",
          "name": "",
          "type": "address"
        }
      ],
      "stateMutability": "view",
      "type": "function",
      "constant": true
    },
    {
      "inputs": [
        {
          "internalType": "address",
          "name": "",
          "type": "address"
        }
      ],
      "name": "beneficiaries",
      "outputs": [
        {
          "internalType": "address",
          "name": "spender",
          "type": "address"
        },
        {
          "internalType": "uint256",
          "name": "value",
          "type": "uint256"
        },
        {
          "internalType": "uint256",
          "name": "payOutDate",
          "type": "uint256"
        },
        {
          "internalType": "bool",
          "name": "paid",
          "type": "bool"
        }
      ],
      "stateMutability": "view",
      "type": "function",
      "constant": true
    },
    {
      "inputs": [
        {
          "internalType": "address",
          "name": "_ben",
          "type": "address"
        },
        {
          "internalType": "uint256",
          "name": "_timeToPayOut",
          "type": "uint256"
        }
      ],
      "name": "addBeneficiary",
      "outputs": [],
      "stateMutability": "payable",
      "type": "function",
      "payable": true
    },
    {
      "inputs": [
        {
          "internalType": "address",
          "name": "_ben",
          "type": "address"
        }
      ],
      "name": "deposit",
      "outputs": [],
      "stateMutability": "payable",
      "type": "function",
      "payable": true
    },
    {
      "inputs": [],
      "name": "withdraw",
      "outputs": [],
      "stateMutability": "nonpayable",
      "type": "function"
    },
    {
      "inputs": [],
      "name": "remainingTime",
      "outputs": [
        {
          "internalType": "uint256",
          "name": "",
          "type": "uint256"
        }
      ],
      "stateMutability": "view",
      "type": "function",
      "constant": true
    }
  ],
  "bytecode": "0x608060405234801561001057600080fd5b50611208806100206000396000f3fe6080604052600436106100555760003560e01c8063015677391461005a5780633ccfd60b1461009a57806396074e70146100b1578063acc4bd08146100cd578063f340fa01146100f8578063f851a44014610114575b600080fd5b34801561006657600080fd5b50610081600480360381019061007c9190610b6a565b61013f565b6040516100919493929190610bda565b60405180910390f35b3480156100a657600080fd5b506100af61019c565b005b6100cb60048036038101906100c69190610c4b565b610579565b005b3480156100d957600080fd5b506100e261080d565b6040516100ef9190610c8b565b60405180910390f35b610112600480360381019061010d9190610b6a565b6108e6565b005b34801561012057600080fd5b50610129610ae1565b6040516101369190610ca6565b60405180910390f35b60016020528060005260406000206000915090508060000160009054906101000a900473ffffffffffffffffffffffffffffffffffffffff16908060010154908060020154908060030160009054906101000a900460ff16905084565b336000600160008373ffffffffffffffffffffffffffffffffffffffff1673ffffffffffffffffffffffffffffffffffffffff1681526020019081526020016000206001015411610222576040517f08c379a000000000000000000000000000000000000000000000000000000000815260040161021990610d44565b60405180910390fd5b42600160008373ffffffffffffffffffffffffffffffffffffffff1673ffffffffffffffffffffffffffffffffffffffff16815260200190815260200160002060020154106102a6576040517f08c379a000000000000000000000000000000000000000000000000000000000815260040161029d90610dd6565b60405180910390fd5b60001515600160008373ffffffffffffffffffffffffffffffffffffffff1673ffffffffffffffffffffffffffffffffffffffff16815260200190815260200160002060030160009054906101000a900460ff1615151461033c576040517f08c379a000000000000000000000000000000000000000000000000000000000815260040161033390610e42565b60405180910390fd5b6000600160003373ffffffffffffffffffffffffffffffffffffffff1673ffffffffffffffffffffffffffffffffffffffff168152602001908152602001600020905060018160030160006101000a81548160ff0219169083151502179055503373ffffffffffffffffffffffffffffffffffffffff166108fc82600101549081150290604051600060405180830381858888f193505050501580156103e6573d6000803e3d6000fd5b503373ffffffffffffffffffffffffffffffffffffffff167f884edad9ce6fa2440d8a54cc123490eb96d2768479d49ff9c7366125a942436482600101546040516104319190610c8b565b60405180910390a2600160003373ffffffffffffffffffffffffffffffffffffffff1673ffffffffffffffffffffffffffffffffffffffff168152602001908152602001600020600080820160006101000a81549073ffffffffffffffffffffffffffffffffffffffff0219169055600182016000905560028201600090556003820160006101000a81549060ff021916905550506000808260000160009054906101000a900473ffffffffffffffffffffffffffffffffffffffff1673ffffffffffffffffffffffffffffffffffffffff1673ffffffffffffffffffffffffffffffffffffffff16815260200190815260200160002060003373ffffffffffffffffffffffffffffffffffffffff1673ffffffffffffffffffffffffffffffffffffffff16815260200190815260200160002060006101000a81549060ff02191690555050565b816000600160008373ffffffffffffffffffffffffffffffffffffffff1673ffffffffffffffffffffffffffffffffffffffff16815260200190815260200160002060010154146105ff576040517f08c379a00000000000000000000000000000000000000000000000000000000081526004016105f690610efa565b60405180910390fd5b60405180608001604052803373ffffffffffffffffffffffffffffffffffffffff1681526020013481526020014260148561063a9190610f49565b6106449190610f8b565b815260200160001515815250600160008573ffffffffffffffffffffffffffffffffffffffff1673ffffffffffffffffffffffffffffffffffffffff16815260200190815260200160002060008201518160000160006101000a81548173ffffffffffffffffffffffffffffffffffffffff021916908373ffffffffffffffffffffffffffffffffffffffff160217905550602082015181600101556040820151816002015560608201518160030160006101000a81548160ff02191690831515021790555090505060016000803373ffffffffffffffffffffffffffffffffffffffff1673ffffffffffffffffffffffffffffffffffffffff16815260200190815260200160002060008573ffffffffffffffffffffffffffffffffffffffff1673ffffffffffffffffffffffffffffffffffffffff16815260200190815260200160002060006101000a81548160ff0219169083151502179055508273ffffffffffffffffffffffffffffffffffffffff163373ffffffffffffffffffffffffffffffffffffffff167f081b288662c8563955d856854cd60822abc912f4b8a15f2ee8a82651f927587b8434604051610800929190610fbf565b60405180910390a3505050565b600042600160003373ffffffffffffffffffffffffffffffffffffffff1673ffffffffffffffffffffffffffffffffffffffff1681526020019081526020016000206002015411610893576040517f08c379a000000000000000000000000000000000000000000000000000000000815260040161088a9061105a565b60405180910390fd5b42600160003373ffffffffffffffffffffffffffffffffffffffff1673ffffffffffffffffffffffffffffffffffffffff168152602001908152602001600020600201546108e1919061107a565b905090565b806000803373ffffffffffffffffffffffffffffffffffffffff1673ffffffffffffffffffffffffffffffffffffffff16815260200190815260200160002060008273ffffffffffffffffffffffffffffffffffffffff1673ffffffffffffffffffffffffffffffffffffffff16815260200190815260200160002060009054906101000a900460ff166109af576040517f08c379a00000000000000000000000000000000000000000000000000000000081526004016109a690611120565b60405180910390fd5b816000600160008373ffffffffffffffffffffffffffffffffffffffff1673ffffffffffffffffffffffffffffffffffffffff1681526020019081526020016000206001015411610a35576040517f08c379a0000000000000000000000000000000000000000000000000000000008152600401610a2c906111b2565b60405180910390fd5b34600160008573ffffffffffffffffffffffffffffffffffffffff1673ffffffffffffffffffffffffffffffffffffffff1681526020019081526020016000206001016000828254610a879190610f8b565b925050819055508273ffffffffffffffffffffffffffffffffffffffff167fe1fffcc4923d04b559f4d29a8bfc6cda04eb5b0d3c460751c2402c5c5cc9109c34604051610ad49190610c8b565b60405180910390a2505050565b600260009054906101000a900473ffffffffffffffffffffffffffffffffffffffff1681565b600080fd5b600073ffffffffffffffffffffffffffffffffffffffff82169050919050565b6000610b3782610b0c565b9050919050565b610b4781610b2c565b8114610b5257600080fd5b50565b600081359050610b6481610b3e565b92915050565b600060208284031215610b8057610b7f610b07565b5b6000610b8e84828501610b55565b91505092915050565b610ba081610b2c565b82525050565b6000819050919050565b610bb981610ba6565b82525050565b60008115159050919050565b610bd481610bbf565b82525050565b6000608082019050610bef6000830187610b97565b610bfc6020830186610bb0565b610c096040830185610bb0565b610c166060830184610bcb565b95945050505050565b610c2881610ba6565b8114610c3357600080fd5b50565b600081359050610c4581610c1f565b92915050565b60008060408385031215610c6257610c61610b07565b5b6000610c7085828601610b55565b9250506020610c8185828601610c36565b9150509250929050565b6000602082019050610ca06000830184610bb0565b92915050565b6000602082019050610cbb6000830184610b97565b92915050565b600082825260208201905092915050565b7f4e6f7468696e6720746f2057697468647261772e20506c65617365206164642060008201527f66756e6473206669727374000000000000000000000000000000000000000000602082015250565b6000610d2e602b83610cc1565b9150610d3982610cd2565b604082019050919050565b60006020820190508181036000830152610d5d81610d21565b9050919050565b7f4e6f7420776974686472617761626c652e20576169742074696c6c2066756e6460008201527f206c6f636b696e6720706572696f6420656e6473000000000000000000000000602082015250565b6000610dc0603483610cc1565b9150610dcb82610d64565b604082019050919050565b60006020820190508181036000830152610def81610db3565b9050919050565b7f416c72656164792077697468647261776e2066756e6473000000000000000000600082015250565b6000610e2c601783610cc1565b9150610e3782610df6565b602082019050919050565b60006020820190508181036000830152610e5b81610e1f565b9050919050565b7f42656e656669636961727920616c726561647920637265617465642e2043686560008201527f636b2065746865727363616e20666f72206d6f726520696e666f726d6174696f60208201527f6e2e000000000000000000000000000000000000000000000000000000000000604082015250565b6000610ee4604283610cc1565b9150610eef82610e62565b606082019050919050565b60006020820190508181036000830152610f1381610ed7565b9050919050565b7f4e487b7100000000000000000000000000000000000000000000000000000000600052601160045260246000fd5b6000610f5482610ba6565b9150610f5f83610ba6565b9250828202610f6d81610ba6565b91508282048414831517610f8457610f83610f1a565b5b5092915050565b6000610f9682610ba6565b9150610fa183610ba6565b9250828201905080821115610fb957610fb8610f1a565b5b92915050565b6000604082019050610fd46000830185610bb0565b610fe16020830184610bb0565b9392505050565b7f46756e64732061726520616c726561647920756e6c6f636b656420616e64206360008201527f616e20626520636c61696d65642e000000000000000000000000000000000000602082015250565b6000611044602e83610cc1565b915061104f82610fe8565b604082019050919050565b6000602082019050818103600083015261107381611037565b9050919050565b600061108582610ba6565b915061109083610ba6565b92508282039050818111156110a8576110a7610f1a565b5b92915050565b7f4f726967696e206f662063616c6c206e6f74207370656e64657220616464726560008201527f7373000000000000000000000000000000000000000000000000000000000000602082015250565b600061110a602283610cc1565b9150611115826110ae565b604082019050919050565b60006020820190508181036000830152611139816110fd565b9050919050565b7f506c65617365206164642062656e65666963696172792061646472657373206660008201527f6972737400000000000000000000000000000000000000000000000000000000602082015250565b600061119c602483610cc1565b91506111a782611140565b604082019050919050565b600060208201905081810360008301526111cb8161118f565b905091905056fea26469706673582212202e5817a5b2e9fb5f9da6a3a0be0f48c1686c7cb7c4f89111d1c6915f5890c7a064736f6c63430008130033",
  "immutableReferences": {},
  "source": "// SPDX-License-Identifier: UNLICENSED\npragma solidity <0.9.0;\n\n\ncontract TrustFund{\n\n    struct Beneficiary{\n        address spender;\n        uint value;\n        uint payOutDate;\n        bool paid;\n    }\n\n//TODO: mapping fr mehr als nur den contract deployer -> jeder kann nutzen!!\n    mapping(address => mapping(address => bool)) spenders;\n    mapping(address =>  Beneficiary) public beneficiaries;\n    address public admin;\n\n\n    modifier isSpender(address _ben){\n        require(spenders[msg.sender][_ben], \"Origin of call not spender address\");\n        _;\n    }\n\n    modifier isBen(address _ben) {\n        require(beneficiaries[_ben].value > 0, \"Please add beneficiary address first\");\n        _;\n    }\n\n    modifier isNotBen(address _ben){\n        require(beneficiaries[_ben].value == 0, \"Beneficiary already created. Check etherscan for more information.\");\n        _;\n    }\n\n    modifier isWithdrawable(address _ben){\n        require(beneficiaries[_ben].value > 0, \"Nothing to Withdraw. Please add funds first\");\n        require(beneficiaries[_ben].payOutDate < block.timestamp, \"Not withdrawable. Wait till fund locking period ends\");\n        require(beneficiaries[_ben].paid == false, \"Already withdrawn funds\");\n        _;\n    }\n\n    event BeneficiaryCreated(\n        address indexed _spender,\n        address indexed _ben,\n        uint _payOutDate,\n        uint _value\n    );\n\n    event Deposit(\n        address indexed _ben,\n        uint _value\n    );\n\n    event Withdraw(\n        address indexed _ben,\n        uint _value\n    );\n\n    event Remaining(\n        address indexed _ben,\n        bool isTimeRemaining,\n        uint actStamp,\n        uint initialStamp\n    );\n\n    // beneficiaries[_ben] = Beneficiary(msg.value, _timeToPayOut * 31556952 + block.timestamp, false);\n    function addBeneficiary(address _ben, uint _timeToPayOut) external payable isNotBen(_ben) {\n        beneficiaries[_ben] = Beneficiary(msg.sender, msg.value, _timeToPayOut * 20 + block.timestamp, false);\n        spenders[msg.sender][_ben] = true;\n        emit BeneficiaryCreated(msg.sender, _ben, _timeToPayOut, msg.value);\n    }\n\n    function deposit(address _ben) external payable isSpender(_ben) isBen(_ben) {\n        beneficiaries[_ben].value += msg.value;\n        emit Deposit(_ben, msg.value);\n    }\n\n    function withdraw() external isWithdrawable(msg.sender){\n        Beneficiary storage ben = beneficiaries[msg.sender];\n        ben.paid = true;\n        payable(msg.sender).transfer(ben.value);\n        emit Withdraw(msg.sender, ben.value);\n        delete beneficiaries[msg.sender];\n        delete spenders[ben.spender][msg.sender];\n    }\n  \n    function remainingTime() external view returns(uint){\n        //emit Remaining(msg.sender, beneficiaries[msg.sender].payOutDate > block.timestamp ? true:false, block.timestamp, beneficiaries[msg.sender].payOutDate);\n        require(beneficiaries[msg.sender].payOutDate > block.timestamp, \"Funds are already unlocked and can be claimed.\");\n        return beneficiaries[msg.sender].payOutDate - block.timestamp;\n    }\n\n}",
  "sourcePath": "/Users/yannick/Library/CloudStorage/OneDrive-Personlich/Zertifikate_onlinekurse/blockhcain-council/CSCD/SimpleTrustFund/contracts/TrustFund.sol",
  "compiler": {
    "name": "solc",
    "version": "0.8.19+commit.7dd6d404.Emscripten.clang"
  },
  "schemaVersion": "3.4.13",
  "updatedAt": "2023-05-13T12:02:56.547Z",
  "networkType": "ethereum",
  "devdoc": {
    "kind": "dev",
    "methods": {},
    "version": 1
  },
  "userdoc": {
    "kind": "user",
    "methods": {},
    "version": 1
  }
}