{
  "contractName": "TrustFund",
  "abi": [
    {
      "inputs": [],
      "stateMutability": "nonpayable",
      "type": "constructor"
    },
    {
      "anonymous": false,
      "inputs": [
        {
          "indexed": true,
          "internalType": "address",
          "name": "_kid",
          "type": "address"
        },
        {
          "indexed": false,
          "internalType": "uint256",
          "name": "_timeToMaturity",
          "type": "uint256"
        },
        {
          "indexed": false,
          "internalType": "uint256",
          "name": "_amount",
          "type": "uint256"
        }
      ],
      "name": "ChildCreated",
      "type": "event"
    },
    {
      "anonymous": false,
      "inputs": [
        {
          "indexed": true,
          "internalType": "address",
          "name": "_kid",
          "type": "address"
        },
        {
          "indexed": false,
          "internalType": "uint256",
          "name": "_amount",
          "type": "uint256"
        }
      ],
      "name": "Deposit",
      "type": "event"
    },
    {
      "anonymous": false,
      "inputs": [
        {
          "indexed": true,
          "internalType": "address",
          "name": "_kid",
          "type": "address"
        },
        {
          "indexed": false,
          "internalType": "bool",
          "name": "isRemaining",
          "type": "bool"
        },
        {
          "indexed": false,
          "internalType": "uint256",
          "name": "act_stamp",
          "type": "uint256"
        },
        {
          "indexed": false,
          "internalType": "uint256",
          "name": "initial_stamp",
          "type": "uint256"
        }
      ],
      "name": "Remaining",
      "type": "event"
    },
    {
      "anonymous": false,
      "inputs": [
        {
          "indexed": true,
          "internalType": "address",
          "name": "_kid",
          "type": "address"
        },
        {
          "indexed": false,
          "internalType": "uint256",
          "name": "_amount",
          "type": "uint256"
        }
      ],
      "name": "Withdraw",
      "type": "event"
    },
    {
      "inputs": [],
      "name": "admin",
      "outputs": [
        {
          "internalType": "address",
          "name": "",
          "type": "address"
        }
      ],
      "stateMutability": "view",
      "type": "function",
      "constant": true
    },
    {
      "inputs": [
        {
          "internalType": "address",
          "name": "",
          "type": "address"
        }
      ],
      "name": "kids",
      "outputs": [
        {
          "internalType": "uint256",
          "name": "amount",
          "type": "uint256"
        },
        {
          "internalType": "uint256",
          "name": "maturity",
          "type": "uint256"
        },
        {
          "internalType": "bool",
          "name": "paid",
          "type": "bool"
        }
      ],
      "stateMutability": "view",
      "type": "function",
      "constant": true
    },
    {
      "inputs": [
        {
          "internalType": "address",
          "name": "_kid",
          "type": "address"
        },
        {
          "internalType": "uint256",
          "name": "_timeToMaturity",
          "type": "uint256"
        }
      ],
      "name": "addKid",
      "outputs": [],
      "stateMutability": "payable",
      "type": "function",
      "payable": true
    },
    {
      "inputs": [
        {
          "internalType": "address",
          "name": "_kid",
          "type": "address"
        }
      ],
      "name": "deposit",
      "outputs": [],
      "stateMutability": "payable",
      "type": "function",
      "payable": true
    },
    {
      "inputs": [],
      "name": "withdraw",
      "outputs": [],
      "stateMutability": "nonpayable",
      "type": "function"
    },
    {
      "inputs": [],
      "name": "remainingTime",
      "outputs": [
        {
          "internalType": "uint256",
          "name": "",
          "type": "uint256"
        }
      ],
      "stateMutability": "nonpayable",
      "type": "function"
    }
  ],
  "bytecode": "0x608060405234801561001057600080fd5b5033600160006101000a81548173ffffffffffffffffffffffffffffffffffffffff021916908373ffffffffffffffffffffffffffffffffffffffff16021790555061104b806100616000396000f3fe6080604052600436106100555760003560e01c80632438628c1461005a5780633ccfd60b1461009957806340990e30146100b0578063acc4bd08146100cc578063f340fa01146100f7578063f851a44014610113575b600080fd5b34801561006657600080fd5b50610081600480360381019061007c9190610a8e565b61013e565b60405161009093929190610aef565b60405180910390f35b3480156100a557600080fd5b506100ae610175565b005b6100ca60048036038101906100c59190610b52565b610477565b005b3480156100d857600080fd5b506100e161068b565b6040516100ee9190610b92565b60405180910390f35b610111600480360381019061010c9190610a8e565b610846565b005b34801561011f57600080fd5b50610128610a05565b6040516101359190610bbc565b60405180910390f35b60006020528060005260406000206000915090508060000154908060010154908060020160009054906101000a900460ff16905083565b3360008060008373ffffffffffffffffffffffffffffffffffffffff1673ffffffffffffffffffffffffffffffffffffffff16815260200190815260200160002060000154116101fa576040517f08c379a00000000000000000000000000000000000000000000000000000000081526004016101f190610c34565b60405180910390fd5b426000808373ffffffffffffffffffffffffffffffffffffffff1673ffffffffffffffffffffffffffffffffffffffff168152602001908152602001600020600101541061027d576040517f08c379a000000000000000000000000000000000000000000000000000000000815260040161027490610ca0565b60405180910390fd5b600015156000808373ffffffffffffffffffffffffffffffffffffffff1673ffffffffffffffffffffffffffffffffffffffff16815260200190815260200160002060020160009054906101000a900460ff16151514610312576040517f08c379a000000000000000000000000000000000000000000000000000000000815260040161030990610d0c565b60405180910390fd5b60008060003373ffffffffffffffffffffffffffffffffffffffff1673ffffffffffffffffffffffffffffffffffffffff168152602001908152602001600020905060018160020160006101000a81548160ff0219169083151502179055503373ffffffffffffffffffffffffffffffffffffffff166108fc82600001549081150290604051600060405180830381858888f193505050501580156103bb573d6000803e3d6000fd5b503373ffffffffffffffffffffffffffffffffffffffff167f884edad9ce6fa2440d8a54cc123490eb96d2768479d49ff9c7366125a942436482600001546040516104069190610b92565b60405180910390a26000803373ffffffffffffffffffffffffffffffffffffffff1673ffffffffffffffffffffffffffffffffffffffff16815260200190815260200160002060008082016000905560018201600090556002820160006101000a81549060ff021916905550505050565b3373ffffffffffffffffffffffffffffffffffffffff16600160009054906101000a900473ffffffffffffffffffffffffffffffffffffffff1673ffffffffffffffffffffffffffffffffffffffff1614610507576040517f08c379a00000000000000000000000000000000000000000000000000000000081526004016104fe90610d78565b60405180910390fd5b8160008060008373ffffffffffffffffffffffffffffffffffffffff1673ffffffffffffffffffffffffffffffffffffffff168152602001908152602001600020600001541461058c576040517f08c379a000000000000000000000000000000000000000000000000000000000815260040161058390610de4565b60405180910390fd5b6040518060600160405280348152602001426014856105ab9190610e33565b6105b59190610e75565b8152602001600015158152506000808573ffffffffffffffffffffffffffffffffffffffff1673ffffffffffffffffffffffffffffffffffffffff168152602001908152602001600020600082015181600001556020820151816001015560408201518160020160006101000a81548160ff0219169083151502179055509050508273ffffffffffffffffffffffffffffffffffffffff167f36bfc1b04e4fec812fbf536ae1025df089419d478587d908c5a1cdc06263e95a833460405161067e929190610ea9565b60405180910390a2505050565b60003373ffffffffffffffffffffffffffffffffffffffff167f19e3e042ee7c5dce2eb5651f0a711733f2930d3a8e292e6d79f4c7e60d23c56e426000803373ffffffffffffffffffffffffffffffffffffffff1673ffffffffffffffffffffffffffffffffffffffff1681526020019081526020016000206001015411610714576000610717565b60015b426000803373ffffffffffffffffffffffffffffffffffffffff1673ffffffffffffffffffffffffffffffffffffffff1681526020019081526020016000206001015460405161076993929190610ed2565b60405180910390a2426000803373ffffffffffffffffffffffffffffffffffffffff1673ffffffffffffffffffffffffffffffffffffffff16815260200190815260200160002060010154116107f4576040517f08c379a00000000000000000000000000000000000000000000000000000000081526004016107eb90610f55565b60405180910390fd5b426000803373ffffffffffffffffffffffffffffffffffffffff1673ffffffffffffffffffffffffffffffffffffffff168152602001908152602001600020600101546108419190610f75565b905090565b3373ffffffffffffffffffffffffffffffffffffffff16600160009054906101000a900473ffffffffffffffffffffffffffffffffffffffff1673ffffffffffffffffffffffffffffffffffffffff16146108d6576040517f08c379a00000000000000000000000000000000000000000000000000000000081526004016108cd90610d78565b60405180910390fd5b8060008060008373ffffffffffffffffffffffffffffffffffffffff1673ffffffffffffffffffffffffffffffffffffffff168152602001908152602001600020600001541161095b576040517f08c379a000000000000000000000000000000000000000000000000000000000815260040161095290610ff5565b60405180910390fd5b346000808473ffffffffffffffffffffffffffffffffffffffff1673ffffffffffffffffffffffffffffffffffffffff16815260200190815260200160002060000160008282546109ac9190610e75565b925050819055508173ffffffffffffffffffffffffffffffffffffffff167fe1fffcc4923d04b559f4d29a8bfc6cda04eb5b0d3c460751c2402c5c5cc9109c346040516109f99190610b92565b60405180910390a25050565b600160009054906101000a900473ffffffffffffffffffffffffffffffffffffffff1681565b600080fd5b600073ffffffffffffffffffffffffffffffffffffffff82169050919050565b6000610a5b82610a30565b9050919050565b610a6b81610a50565b8114610a7657600080fd5b50565b600081359050610a8881610a62565b92915050565b600060208284031215610aa457610aa3610a2b565b5b6000610ab284828501610a79565b91505092915050565b6000819050919050565b610ace81610abb565b82525050565b60008115159050919050565b610ae981610ad4565b82525050565b6000606082019050610b046000830186610ac5565b610b116020830185610ac5565b610b1e6040830184610ae0565b949350505050565b610b2f81610abb565b8114610b3a57600080fd5b50565b600081359050610b4c81610b26565b92915050565b60008060408385031215610b6957610b68610a2b565b5b6000610b7785828601610a79565b9250506020610b8885828601610b3d565b9150509250929050565b6000602082019050610ba76000830184610ac5565b92915050565b610bb681610a50565b82525050565b6000602082019050610bd16000830184610bad565b92915050565b600082825260208201905092915050565b7f4e6f7468696e6720746f20576974686472617700000000000000000000000000600082015250565b6000610c1e601383610bd7565b9150610c2982610be8565b602082019050919050565b60006020820190508181036000830152610c4d81610c11565b9050919050565b7f4e6f7420576974686472617761626c6500000000000000000000000000000000600082015250565b6000610c8a601083610bd7565b9150610c9582610c54565b602082019050919050565b60006020820190508181036000830152610cb981610c7d565b9050919050565b7f416c726561647920506169640000000000000000000000000000000000000000600082015250565b6000610cf6600c83610bd7565b9150610d0182610cc0565b602082019050919050565b60006020820190508181036000830152610d2581610ce9565b9050919050565b7f4e6f7420616c6c6f7765642e204f6e6c792041646d696e000000000000000000600082015250565b6000610d62601783610bd7565b9150610d6d82610d2c565b602082019050919050565b60006020820190508181036000830152610d9181610d55565b9050919050565b7f4b696420616c7265616479206164646564000000000000000000000000000000600082015250565b6000610dce601183610bd7565b9150610dd982610d98565b602082019050919050565b60006020820190508181036000830152610dfd81610dc1565b9050919050565b7f4e487b7100000000000000000000000000000000000000000000000000000000600052601160045260246000fd5b6000610e3e82610abb565b9150610e4983610abb565b9250828202610e5781610abb565b91508282048414831517610e6e57610e6d610e04565b5b5092915050565b6000610e8082610abb565b9150610e8b83610abb565b9250828201905080821115610ea357610ea2610e04565b5b92915050565b6000604082019050610ebe6000830185610ac5565b610ecb6020830184610ac5565b9392505050565b6000606082019050610ee76000830186610ae0565b610ef46020830185610ac5565b610f016040830184610ac5565b949350505050565b7f43616e20616c726561647920626520636c61696d65642e000000000000000000600082015250565b6000610f3f601783610bd7565b9150610f4a82610f09565b602082019050919050565b60006020820190508181036000830152610f6e81610f32565b9050919050565b6000610f8082610abb565b9150610f8b83610abb565b9250828203905081811115610fa357610fa2610e04565b5b92915050565b7f506c6561736520616464206368696c6420666972737400000000000000000000600082015250565b6000610fdf601683610bd7565b9150610fea82610fa9565b602082019050919050565b6000602082019050818103600083015261100e81610fd2565b905091905056fea26469706673582212207e7f4d6fc74b5a9272786ecfb64780047d32e27ce9d118876511b29a942f840864736f6c63430008130033",
  "immutableReferences": {},
  "source": "// SPDX-License-Identifier: UNLICENSED\npragma solidity <0.9.0;\n\n/// @title A title that should describe the contract/interface\n/// @author The name of the author\n/// @notice Explain to an end user what this does\n/// @dev Explain to a developer any extra details\ncontract TrustFund{\n\n    struct Kid{\n        uint amount;\n        uint maturity;\n        bool paid;\n    }\n\n    mapping(address =>  Kid) public kids;\n    address public admin;\n\n    constructor (){\n        admin = msg.sender;\n    }\n\n    modifier isAdmin() {\n        require(admin == msg.sender, \"Not allowed. Only Admin\");\n        _;\n    }\n\n    modifier isKid(address _kid) {\n        require(kids[_kid].amount > 0, \"Please add child first\");\n        _;\n    }\n\n    modifier isNotKid(address _kid){\n        require(kids[_kid].amount == 0, \"Kid already added\");\n        _;\n    }\n\n    modifier isWithdrawable(address _kid){\n        require(kids[_kid].amount > 0, \"Nothing to Withdraw\");\n        require(kids[_kid].maturity < block.timestamp, \"Not Withdrawable\");\n        require(kids[_kid].paid == false, \"Already Paid\");\n        _;\n    }\n\n    event ChildCreated(\n        address indexed _kid,\n        uint _timeToMaturity,\n        uint _amount\n    );\n\n    event Deposit(\n        address indexed _kid,\n        uint _amount\n    );\n\n    event Withdraw(\n        address indexed _kid,\n        uint _amount\n    );\n\n    event Remaining(\n        address indexed _kid,\n        bool isRemaining,\n        uint act_stamp,\n        uint initial_stamp\n    );\n\n/// @notice Explain to an end user what this does\n/// @dev  Number 31556952 is factor for years to seconds\n/// @param _kid parameter just like in doxygen (must be followed by parameter name)\n    function addKid(address _kid, uint _timeToMaturity) external payable isAdmin() isNotKid(_kid) {\n        kids[_kid] = Kid(msg.value, _timeToMaturity * 20 + block.timestamp, false);\n        emit ChildCreated(_kid, _timeToMaturity, msg.value);\n    }\n\n\n    function deposit(address _kid) external payable isAdmin() isKid(_kid) {\n        kids[_kid].amount += msg.value;\n        emit Deposit(_kid, msg.value);\n    }\n\n    function withdraw() external isWithdrawable(msg.sender){\n        Kid storage kid = kids[msg.sender];\n        kid.paid = true;\n        payable(msg.sender).transfer(kid.amount);\n        emit Withdraw(msg.sender, kid.amount);\n        delete kids[msg.sender];\n    }\n\n    \n    function remainingTime() external returns(uint){\n        emit Remaining(msg.sender, kids[msg.sender].maturity > block.timestamp ? true:false, block.timestamp, kids[msg.sender].maturity);\n        require(kids[msg.sender].maturity > block.timestamp, \"Can already be claimed.\");\n        return kids[msg.sender].maturity - block.timestamp;\n    }\n\n}",
  "sourcePath": "/Users/yannick/Library/CloudStorage/OneDrive-Personlich/Zertifikate_onlinekurse/blockhcain-council/CSCD/Project1/contracts/TrustFund.sol",
  "compiler": {
    "name": "solc",
    "version": "0.8.19+commit.7dd6d404.Emscripten.clang"
  },
  "schemaVersion": "3.4.13",
  "updatedAt": "2023-05-12T22:07:43.915Z",
  "networkType": "ethereum",
  "devdoc": {
    "author": "The name of the author",
    "details": "Explain to a developer any extra details",
    "kind": "dev",
    "methods": {
      "addKid(address,uint256)": {
        "details": "Number 31556952 is factor for years to seconds",
        "params": {
          "_kid": "parameter just like in doxygen (must be followed by parameter name)"
        }
      }
    },
    "title": "A title that should describe the contract/interface",
    "version": 1
  },
  "userdoc": {
    "kind": "user",
    "methods": {
      "addKid(address,uint256)": {
        "notice": "Explain to an end user what this does"
      }
    },
    "notice": "Explain to an end user what this does",
    "version": 1
  }
}