{
  "contractName": "TrustFund",
  "abi": [
    {
      "anonymous": false,
      "inputs": [
        {
          "indexed": true,
          "internalType": "address",
          "name": "_spender",
          "type": "address"
        },
        {
          "indexed": true,
          "internalType": "address",
          "name": "_ben",
          "type": "address"
        },
        {
          "indexed": false,
          "internalType": "uint256",
          "name": "_payOutDate",
          "type": "uint256"
        },
        {
          "indexed": false,
          "internalType": "uint256",
          "name": "_value",
          "type": "uint256"
        }
      ],
      "name": "BeneficiaryCreated",
      "type": "event"
    },
    {
      "anonymous": false,
      "inputs": [
        {
          "indexed": true,
          "internalType": "address",
          "name": "_ben",
          "type": "address"
        },
        {
          "indexed": false,
          "internalType": "uint256",
          "name": "_value",
          "type": "uint256"
        }
      ],
      "name": "Deposit",
      "type": "event"
    },
    {
      "anonymous": false,
      "inputs": [
        {
          "indexed": true,
          "internalType": "address",
          "name": "_ben",
          "type": "address"
        },
        {
          "indexed": false,
          "internalType": "bool",
          "name": "isTimeRemaining",
          "type": "bool"
        },
        {
          "indexed": false,
          "internalType": "uint256",
          "name": "actStamp",
          "type": "uint256"
        },
        {
          "indexed": false,
          "internalType": "uint256",
          "name": "initialStamp",
          "type": "uint256"
        }
      ],
      "name": "Remaining",
      "type": "event"
    },
    {
      "anonymous": false,
      "inputs": [
        {
          "indexed": true,
          "internalType": "address",
          "name": "_ben",
          "type": "address"
        },
        {
          "indexed": false,
          "internalType": "uint256",
          "name": "_value",
          "type": "uint256"
        }
      ],
      "name": "Withdraw",
      "type": "event"
    },
    {
      "inputs": [
        {
          "internalType": "address",
          "name": "_ben",
          "type": "address"
        },
        {
          "internalType": "uint256",
          "name": "_timeToPayOut",
          "type": "uint256"
        }
      ],
      "name": "addBeneficiary",
      "outputs": [],
      "stateMutability": "payable",
      "type": "function",
      "payable": true
    },
    {
      "inputs": [
        {
          "internalType": "address",
          "name": "_ben",
          "type": "address"
        }
      ],
      "name": "safeDeposit",
      "outputs": [],
      "stateMutability": "payable",
      "type": "function",
      "payable": true
    },
    {
      "inputs": [
        {
          "internalType": "address",
          "name": "_ben",
          "type": "address"
        }
      ],
      "name": "forceDeposit",
      "outputs": [],
      "stateMutability": "payable",
      "type": "function",
      "payable": true
    },
    {
      "inputs": [],
      "name": "withdraw",
      "outputs": [],
      "stateMutability": "nonpayable",
      "type": "function"
    },
    {
      "inputs": [],
      "name": "remainingTime",
      "outputs": [
        {
          "internalType": "uint256",
          "name": "",
          "type": "uint256"
        }
      ],
      "stateMutability": "view",
      "type": "function",
      "constant": true
    },
    {
      "inputs": [
        {
          "internalType": "address",
          "name": "_ben",
          "type": "address"
        }
      ],
      "name": "getBen",
      "outputs": [
        {
          "internalType": "uint256",
          "name": "",
          "type": "uint256"
        },
        {
          "internalType": "uint256",
          "name": "",
          "type": "uint256"
        },
        {
          "internalType": "bool",
          "name": "",
          "type": "bool"
        },
        {
          "internalType": "address[]",
          "name": "",
          "type": "address[]"
        }
      ],
      "stateMutability": "view",
      "type": "function",
      "constant": true
    }
  ],
  "bytecode": "0x608060405234801561001057600080fd5b50611a58806100206000396000f3fe6080604052600436106100555760003560e01c80633ccfd60b1461005a5780635d31fa971461007157806396074e70146100b15780639f5c72c9146100cd578063acc4bd08146100e9578063e6c5122e14610114575b600080fd5b34801561006657600080fd5b5061006f610130565b005b34801561007d57600080fd5b5061009860048036038101906100939190611221565b6104e3565b6040516100a89493929190611340565b60405180910390f35b6100cb60048036038101906100c691906113b8565b6106e1565b005b6100e760048036038101906100e29190611221565b610b16565b005b3480156100f557600080fd5b506100fe610dc7565b60405161010b91906113f8565b60405180910390f35b61012e60048036038101906101299190611221565b610ec4565b005b336000600160008060008573ffffffffffffffffffffffffffffffffffffffff1673ffffffffffffffffffffffffffffffffffffffff16815260200190815260200160002054815260200190815260200160002060000154116101c8576040517f08c379a00000000000000000000000000000000000000000000000000000000081526004016101bf90611496565b60405180910390fd5b42600160008060008573ffffffffffffffffffffffffffffffffffffffff1673ffffffffffffffffffffffffffffffffffffffff168152602001908152602001600020548152602001908152602001600020600101541061025e576040517f08c379a000000000000000000000000000000000000000000000000000000000815260040161025590611528565b60405180910390fd5b60001515600160008060008573ffffffffffffffffffffffffffffffffffffffff1673ffffffffffffffffffffffffffffffffffffffff16815260200190815260200160002054815260200190815260200160002060020160009054906101000a900460ff16151514610306576040517f08c379a00000000000000000000000000000000000000000000000000000000081526004016102fd90611594565b60405180910390fd5b6000600160008060003373ffffffffffffffffffffffffffffffffffffffff1673ffffffffffffffffffffffffffffffffffffffff168152602001908152602001600020548152602001908152602001600020905060018160020160006101000a81548160ff0219169083151502179055503373ffffffffffffffffffffffffffffffffffffffff166108fc82600001549081150290604051600060405180830381858888f193505050501580156103c2573d6000803e3d6000fd5b503373ffffffffffffffffffffffffffffffffffffffff167f884edad9ce6fa2440d8a54cc123490eb96d2768479d49ff9c7366125a9424364826000015460405161040d91906113f8565b60405180910390a2600160008060003373ffffffffffffffffffffffffffffffffffffffff1673ffffffffffffffffffffffffffffffffffffffff16815260200190815260200160002054815260200190815260200160002060008082016000905560018201600090556002820160006101000a81549060ff021916905560038201600061049b91906110f6565b50506000803373ffffffffffffffffffffffffffffffffffffffff1673ffffffffffffffffffffffffffffffffffffffff168152602001908152602001600020600090555050565b60008060006060600160008060008873ffffffffffffffffffffffffffffffffffffffff1673ffffffffffffffffffffffffffffffffffffffff16815260200190815260200160002054815260200190815260200160002060000154600160008060008973ffffffffffffffffffffffffffffffffffffffff1673ffffffffffffffffffffffffffffffffffffffff16815260200190815260200160002054815260200190815260200160002060010154600160008060008a73ffffffffffffffffffffffffffffffffffffffff1673ffffffffffffffffffffffffffffffffffffffff16815260200190815260200160002054815260200190815260200160002060020160009054906101000a900460ff16600160008060008b73ffffffffffffffffffffffffffffffffffffffff1673ffffffffffffffffffffffffffffffffffffffff168152602001908152602001600020548152602001908152602001600020600301808054806020026020016040519081016040528092919081815260200182805480156106cb57602002820191906000526020600020905b8160009054906101000a900473ffffffffffffffffffffffffffffffffffffffff1673ffffffffffffffffffffffffffffffffffffffff1681526020019060010190808311610681575b5050505050905093509350935093509193509193565b60003411610724576040517f08c379a000000000000000000000000000000000000000000000000000000000815260040161071b90611600565b60405180910390fd5b816000600160008060008573ffffffffffffffffffffffffffffffffffffffff1673ffffffffffffffffffffffffffffffffffffffff16815260200190815260200160002054815260200190815260200160002060000154146107bc576040517f08c379a00000000000000000000000000000000000000000000000000000000081526004016107b3906116b8565b60405180910390fd5b826040516020016107cd9190611720565b604051602081830303815290604052805190602001206000808573ffffffffffffffffffffffffffffffffffffffff1673ffffffffffffffffffffffffffffffffffffffff16815260200190815260200160002081905550604051806080016040528034815260200142601485610844919061176a565b61084e91906117ac565b8152602001600015158152602001600067ffffffffffffffff811115610877576108766117e0565b5b6040519080825280602002602001820160405280156108a55781602001602082028036833780820191505090505b50815250600160008060008773ffffffffffffffffffffffffffffffffffffffff1673ffffffffffffffffffffffffffffffffffffffff168152602001908152602001600020548152602001908152602001600020600082015181600001556020820151816001015560408201518160020160006101000a81548160ff021916908315150217905550606082015181600301908051906020019061094a929190611117565b50905050600160008060008673ffffffffffffffffffffffffffffffffffffffff1673ffffffffffffffffffffffffffffffffffffffff168152602001908152602001600020548152602001908152602001600020600301339080600181540180825580915050600190039060005260206000200160009091909190916101000a81548173ffffffffffffffffffffffffffffffffffffffff021916908373ffffffffffffffffffffffffffffffffffffffff1602179055506001600260003373ffffffffffffffffffffffffffffffffffffffff1673ffffffffffffffffffffffffffffffffffffffff16815260200190815260200160002060008060008773ffffffffffffffffffffffffffffffffffffffff1673ffffffffffffffffffffffffffffffffffffffff16815260200190815260200160002054815260200190815260200160002060006101000a81548160ff0219169083151502179055508273ffffffffffffffffffffffffffffffffffffffff163373ffffffffffffffffffffffffffffffffffffffff167f081b288662c8563955d856854cd60822abc912f4b8a15f2ee8a82651f927587b8434604051610b0992919061180f565b60405180910390a3505050565b806000600160008060008573ffffffffffffffffffffffffffffffffffffffff1673ffffffffffffffffffffffffffffffffffffffff1681526020019081526020016000205481526020019081526020016000206000015411610bae576040517f08c379a0000000000000000000000000000000000000000000000000000000008152600401610ba5906118aa565b60405180910390fd5b34600160008060008673ffffffffffffffffffffffffffffffffffffffff1673ffffffffffffffffffffffffffffffffffffffff1681526020019081526020016000205481526020019081526020016000206000016000828254610c1291906117ac565b92505081905550600160008060008573ffffffffffffffffffffffffffffffffffffffff1673ffffffffffffffffffffffffffffffffffffffff168152602001908152602001600020548152602001908152602001600020600301339080600181540180825580915050600190039060005260206000200160009091909190916101000a81548173ffffffffffffffffffffffffffffffffffffffff021916908373ffffffffffffffffffffffffffffffffffffffff1602179055506001600260003373ffffffffffffffffffffffffffffffffffffffff1673ffffffffffffffffffffffffffffffffffffffff16815260200190815260200160002060008060008673ffffffffffffffffffffffffffffffffffffffff1673ffffffffffffffffffffffffffffffffffffffff16815260200190815260200160002054815260200190815260200160002060006101000a81548160ff0219169083151502179055508173ffffffffffffffffffffffffffffffffffffffff167fe1fffcc4923d04b559f4d29a8bfc6cda04eb5b0d3c460751c2402c5c5cc9109c34604051610dbb91906113f8565b60405180910390a25050565b600042600160008060003373ffffffffffffffffffffffffffffffffffffffff1673ffffffffffffffffffffffffffffffffffffffff1681526020019081526020016000205481526020019081526020016000206001015411610e5f576040517f08c379a0000000000000000000000000000000000000000000000000000000008152600401610e569061193c565b60405180910390fd5b42600160008060003373ffffffffffffffffffffffffffffffffffffffff1673ffffffffffffffffffffffffffffffffffffffff16815260200190815260200160002054815260200190815260200160002060010154610ebf919061195c565b905090565b80600260003373ffffffffffffffffffffffffffffffffffffffff1673ffffffffffffffffffffffffffffffffffffffff16815260200190815260200160002060008060008473ffffffffffffffffffffffffffffffffffffffff1673ffffffffffffffffffffffffffffffffffffffff16815260200190815260200160002054815260200190815260200160002060009054906101000a900460ff16610fa0576040517f08c379a0000000000000000000000000000000000000000000000000000000008152600401610f9790611a02565b60405180910390fd5b816000600160008060008573ffffffffffffffffffffffffffffffffffffffff1673ffffffffffffffffffffffffffffffffffffffff1681526020019081526020016000205481526020019081526020016000206000015411611038576040517f08c379a000000000000000000000000000000000000000000000000000000000815260040161102f906118aa565b60405180910390fd5b34600160008060008773ffffffffffffffffffffffffffffffffffffffff1673ffffffffffffffffffffffffffffffffffffffff168152602001908152602001600020548152602001908152602001600020600001600082825461109c91906117ac565b925050819055508273ffffffffffffffffffffffffffffffffffffffff167fe1fffcc4923d04b559f4d29a8bfc6cda04eb5b0d3c460751c2402c5c5cc9109c346040516110e991906113f8565b60405180910390a2505050565b508054600082559060005260206000209081019061111491906111a1565b50565b828054828255906000526020600020908101928215611190579160200282015b8281111561118f5782518260006101000a81548173ffffffffffffffffffffffffffffffffffffffff021916908373ffffffffffffffffffffffffffffffffffffffff16021790555091602001919060010190611137565b5b50905061119d91906111a1565b5090565b5b808211156111ba5760008160009055506001016111a2565b5090565b600080fd5b600073ffffffffffffffffffffffffffffffffffffffff82169050919050565b60006111ee826111c3565b9050919050565b6111fe816111e3565b811461120957600080fd5b50565b60008135905061121b816111f5565b92915050565b600060208284031215611237576112366111be565b5b60006112458482850161120c565b91505092915050565b6000819050919050565b6112618161124e565b82525050565b60008115159050919050565b61127c81611267565b82525050565b600081519050919050565b600082825260208201905092915050565b6000819050602082019050919050565b6112b7816111e3565b82525050565b60006112c983836112ae565b60208301905092915050565b6000602082019050919050565b60006112ed82611282565b6112f7818561128d565b93506113028361129e565b8060005b8381101561133357815161131a88826112bd565b9750611325836112d5565b925050600181019050611306565b5085935050505092915050565b60006080820190506113556000830187611258565b6113626020830186611258565b61136f6040830185611273565b818103606083015261138181846112e2565b905095945050505050565b6113958161124e565b81146113a057600080fd5b50565b6000813590506113b28161138c565b92915050565b600080604083850312156113cf576113ce6111be565b5b60006113dd8582860161120c565b92505060206113ee858286016113a3565b9150509250929050565b600060208201905061140d6000830184611258565b92915050565b600082825260208201905092915050565b7f4e6f7468696e6720746f2057697468647261772e20506c65617365206164642060008201527f66756e6473206669727374000000000000000000000000000000000000000000602082015250565b6000611480602b83611413565b915061148b82611424565b604082019050919050565b600060208201905081810360008301526114af81611473565b9050919050565b7f4e6f7420776974686472617761626c652e20576169742074696c6c2066756e6460008201527f206c6f636b696e6720706572696f6420656e6473000000000000000000000000602082015250565b6000611512603483611413565b915061151d826114b6565b604082019050919050565b6000602082019050818103600083015261154181611505565b9050919050565b7f416c72656164792077697468647261776e2066756e6473000000000000000000600082015250565b600061157e601783611413565b915061158982611548565b602082019050919050565b600060208201905081810360008301526115ad81611571565b9050919050565b7f506c656173652073656e6420736f6d652066756e647300000000000000000000600082015250565b60006115ea601683611413565b91506115f5826115b4565b602082019050919050565b60006020820190508181036000830152611619816115dd565b9050919050565b7f42656e656669636961727920616c726561647920637265617465642e2043686560008201527f636b2065746865727363616e20666f72206d6f726520696e666f726d6174696f60208201527f6e2e000000000000000000000000000000000000000000000000000000000000604082015250565b60006116a2604283611413565b91506116ad82611620565b606082019050919050565b600060208201905081810360008301526116d181611695565b9050919050565b60008160601b9050919050565b60006116f0826116d8565b9050919050565b6000611702826116e5565b9050919050565b61171a611715826111e3565b6116f7565b82525050565b600061172c8284611709565b60148201915081905092915050565b7f4e487b7100000000000000000000000000000000000000000000000000000000600052601160045260246000fd5b60006117758261124e565b91506117808361124e565b925082820261178e8161124e565b915082820484148315176117a5576117a461173b565b5b5092915050565b60006117b78261124e565b91506117c28361124e565b92508282019050808211156117da576117d961173b565b5b92915050565b7f4e487b7100000000000000000000000000000000000000000000000000000000600052604160045260246000fd5b60006040820190506118246000830185611258565b6118316020830184611258565b9392505050565b7f506c65617365206164642062656e65666963696172792061646472657373206660008201527f6972737400000000000000000000000000000000000000000000000000000000602082015250565b6000611894602483611413565b915061189f82611838565b604082019050919050565b600060208201905081810360008301526118c381611887565b9050919050565b7f46756e64732061726520616c726561647920756e6c6f636b656420616e64206360008201527f616e20626520636c61696d65642e000000000000000000000000000000000000602082015250565b6000611926602e83611413565b9150611931826118ca565b604082019050919050565b6000602082019050818103600083015261195581611919565b9050919050565b60006119678261124e565b91506119728361124e565b925082820390508181111561198a5761198961173b565b5b92915050565b7f4f726967696e206f662063616c6c206e6f7420696e697469616c207370656e6460008201527f6572206164647265737300000000000000000000000000000000000000000000602082015250565b60006119ec602a83611413565b91506119f782611990565b604082019050919050565b60006020820190508181036000830152611a1b816119df565b905091905056fea2646970667358221220756b159d572209b121e63dbed478bf69fe2ca1885e783640ab8902b3a2e08f6364736f6c63430008130033",
  "immutableReferences": {},
  "source": "// SPDX-License-Identifier: UNLICENSED\npragma solidity <0.9.0;\n\n\ncontract TrustFund{\n\n    struct Beneficiary{\n        uint value;\n        uint payOutDate;\n        bool paid;\n        address[] spenders;\n        //mapping (bool => address[]) spenders;\n    }\n\n//TODO: mapping fr mehr als nur den contract deployer -> jeder kann nutzen!!\n    //mapping(address => mapping(address => bool)) spenders;\n    //mapping(address =>  Beneficiary) public beneficiaries;\n\n    mapping(address => bytes32) beneficiaryIDs;\n    mapping(bytes32 => Beneficiary) beneficiaries;\n    mapping(address => mapping(bytes32 => bool)) spenderVal;\n\n\n    modifier isSpender(address _ben){\n        require(spenderVal[msg.sender][beneficiaryIDs[_ben]], \"Origin of call not initial spender address\");\n        _;\n    }\n\n    modifier isValidValue(){\n        require(msg.value > 0, \"Please send some funds\");\n        _;\n    }\n\n    modifier isBen(address _ben) {\n        require(beneficiaries[beneficiaryIDs[_ben]].value > 0, \"Please add beneficiary address first\");\n        _;\n    }\n\n    modifier isNotBen(address _ben){\n        require(beneficiaries[beneficiaryIDs[_ben]].value == 0, \"Beneficiary already created. Check etherscan for more information.\");\n        _;\n    }\n\n    modifier isWithdrawable(address _ben){\n        require(beneficiaries[beneficiaryIDs[_ben]].value > 0, \"Nothing to Withdraw. Please add funds first\");\n        require(beneficiaries[beneficiaryIDs[_ben]].payOutDate < block.timestamp, \"Not withdrawable. Wait till fund locking period ends\");\n        require(beneficiaries[beneficiaryIDs[_ben]].paid == false, \"Already withdrawn funds\");\n        _;\n    }\n\n    event BeneficiaryCreated(\n        address indexed _spender,\n        address indexed _ben,\n        uint _payOutDate,\n        uint _value\n    );\n\n    event Deposit(\n        address indexed _ben,\n        uint _value\n    );\n\n    event Withdraw(\n        address indexed _ben,\n        uint _value\n    );\n\n    event Remaining(\n        address indexed _ben,\n        bool isTimeRemaining,\n        uint actStamp,\n        uint initialStamp\n    );\n\n\n    // beneficiaries[_ben] = Beneficiary(msg.value, _timeToPayOut * 31556952 + block.timestamp, false);\n    function addBeneficiary(address _ben, uint _timeToPayOut) external payable isValidValue() isNotBen(_ben) {\n        beneficiaryIDs[_ben] = keccak256(abi.encodePacked(_ben));\n        beneficiaries[beneficiaryIDs[_ben]] = Beneficiary(msg.value, _timeToPayOut * 20 + block.timestamp, false, new address[](0));\n        beneficiaries[beneficiaryIDs[_ben]].spenders.push(msg.sender);\n        spenderVal[msg.sender][beneficiaryIDs[_ben]] = true;\n        //wenn push msg.sender nicht geht, hier beneficiaries[beneficiaryIDs[_ben]].senders.push(msg.sender);\n        emit BeneficiaryCreated(msg.sender, _ben, _timeToPayOut, msg.value);\n    }\n\n    function safeDeposit(address _ben) external payable isSpender(_ben) isBen(_ben) {\n        beneficiaries[beneficiaryIDs[_ben]].value += msg.value;\n        emit Deposit(_ben, msg.value);\n    }\n\n    function forceDeposit(address _ben) external payable isBen(_ben) {\n        beneficiaries[beneficiaryIDs[_ben]].value += msg.value;\n        beneficiaries[beneficiaryIDs[_ben]].spenders.push(msg.sender);\n        spenderVal[msg.sender][beneficiaryIDs[_ben]] = true;\n        emit Deposit(_ben, msg.value);\n    }\n\n    function withdraw() external isWithdrawable(msg.sender){\n        Beneficiary storage ben = beneficiaries[beneficiaryIDs[msg.sender]];\n        ben.paid = true;\n        payable(msg.sender).transfer(ben.value);\n        emit Withdraw(msg.sender, ben.value);\n        delete beneficiaries[beneficiaryIDs[msg.sender]];\n        delete beneficiaryIDs[msg.sender];\n    }\n  \n    function remainingTime() external view returns(uint){\n        //emit Remaining(msg.sender, beneficiaries[msg.sender].payOutDate > block.timestamp ? true:false, block.timestamp, beneficiaries[msg.sender].payOutDate);\n        require(beneficiaries[beneficiaryIDs[msg.sender]].payOutDate > block.timestamp, \"Funds are already unlocked and can be claimed.\");\n        return beneficiaries[beneficiaryIDs[msg.sender]].payOutDate - block.timestamp;\n    }\n\n    function getBen(address _ben) external view returns(uint, uint, bool, address[] memory){\n        return (\n            beneficiaries[beneficiaryIDs[_ben]].value, \n            beneficiaries[beneficiaryIDs[_ben]].payOutDate, \n            beneficiaries[beneficiaryIDs[_ben]].paid, \n            beneficiaries[beneficiaryIDs[_ben]].spenders\n            );\n    }\n\n}",
  "sourcePath": "/Users/yannick/Library/CloudStorage/OneDrive-Personlich/Zertifikate_onlinekurse/blockhcain-council/CSCD/SimpleTrustFund/contracts/TrustFund.sol",
  "compiler": {
    "name": "solc",
    "version": "0.8.19+commit.7dd6d404.Emscripten.clang"
  },
  "schemaVersion": "3.4.13",
  "updatedAt": "2023-05-13T15:05:41.019Z",
  "networkType": "ethereum",
  "devdoc": {
    "kind": "dev",
    "methods": {},
    "version": 1
  },
  "userdoc": {
    "kind": "user",
    "methods": {},
    "version": 1
  }
}